:100000000C9430000C94A5010C94A5010C94A5014E
:100010000C94A5010C94A5010C94A5010C94A501C8
:100020000C94A5010C94A5010C94A5010C94A501B8
:100030000C94A5010C94A5010C94A5010C94A501A8
:100040000C94A5010C94A5010C94A5010C94A50198
:100050000C94A50100600061800061007D000358E0
:1000600011241FBECFE5D8E0DEBFCDBFE4E5F0E050
:1000700040E017C0B591A59135912591059107FDF7
:100080000CC095918591EF01F92FE82F05900D9205
:10009000A217B307D9F7FE0104C01D92A217B30738
:1000A000E1F7E036F40731F70E945A000C949A0108
:0400B000F894FFCFF2
:1000B40089E790E0A0E8182FD92FCA2FBC018A2F16
:1000C4000E945E0185E790E0A0E8E82EF92E0A2F51
:1000D400BC018A2F0E945E0181E790E0A0E8B82E5F
:1000E400C92EDA2EBC018A2F0E945E0140E0612FE6
:1000F4007D2F8C2F0E940D0140E06E2D7F2D802FCF
:100104000E940D0140E06B2D7C2D8D2D0E940D0170
:100114008091600081110CC041E0612F7D2F8C2FF4
:100124000E940D01809160008F5F8093600018C071
:10013400813061F441E06E2D7F2D802F0E940D01EE
:10014400809160008F5F809360000AC0823041F428
:1001540041E06B2D7C2D8D2D0E940D0110926000CD
:100164002FEB87E299E0215080409040E1F700C0F6
:040174000000BCCFFC
:10017800A82FCB010097A10509F443C0FC012491E5
:10018800A7FD2081263008F03EC00196A11DFC0184
:100198008491A7FD80818930C0F5442319F041304E
:1001A800C9F035C0E22FF0E0EE0FFF1FEF59FF4F07
:1001B8000190F081E02D408121E030E0B90102C0DA
:1001C800660F771F8A95E2F7CB0180958423808399
:1001D80081E00895E22FF0E0EE0FFF1FEF59FF4F87
:1001E8000190F081E02D408121E030E0B90102C0AA
:1001F800660F771F8A95E2F7CB01842B808381E015
:10020800089580E0089580E0089580E0089580E0F2
:02021800089547
:10021A00A82FCB010097A10509F443C0FC01249142
:10022A00A7FD2081263008F03EC00196A11DFC01E1
:10023A008491A7FD80818930C0F5442319F04130AB
:10024A00C9F035C0E22FF0E0EE0FFF1FE759FF4F6C
:10025A000190F081E02D408121E030E0B90102C037
:10026A00660F771F8A95E2F7CB01809584238083F6
:10027A0081E00895E22FF0E0EE0FFF1FE759FF4FEC
:10028A000190F081E02D408121E030E0B90102C007
:10029A00660F771F8A95E2F7CB01842B808381E072
:1002AA00089580E0089580E0089580E0089580E050
:0202BA000895A5
:1002BC00CF92DF92EF92A82FCB010097A10559F1B5
:1002CC00FC012491A7FD2081263038F59C014A2F92
:1002DC002F5F3F4F4F4FF901249147FD208129306B
:1002EC00F0F46C01EA2E0296A11DFC014491A7FDCD
:1002FC0040818E2DB6010E94BC00AE2DC601039626
:10030C00A11DFC014491A7FD40818E2DB6010E94D8
:10031C000D0181E005C080E003C080E001C080E0F9
:08032C00EF90DF90CF900895DF
:10033400EC010E94AA010E94A901CE010E94AB0116
:06034400CE010E94A7019A
:04034A000C9400000F
:04034E000E945800B1
:0203520008950C
:0203540008950A
:02035600089508
:080358003A003B0035003100C2
:080360003B00380035003200BB
:04036800020201008C
:04036C000201010089
:040370000200010086
:00000001FF
