:100000000C9430000C9497000C9497000C9497007B
:100010000C9497000C9497000C9497000C94970004
:100020000C9497000C9497000C9497000C949700F4
:100030000C9497000C9497000C9497000C949700E4
:100040000C9497000C9497000C9497000C949700D4
:100050000C9497000060007000013C0070007180FB
:1000600011241FBECFE5D8E0DEBFCDBFE4E5F0E050
:1000700040E017C0B591A59135912591059107FDF7
:100080000CC095918591EF01F92FE82F05900D9205
:10009000A217B307D9F7FE0104C01D92A217B30738
:1000A000E1F7E036F40731F70E945A000C948C0017
:0400B000F894FFCFF2
:1000B40061E082E00E9472006091700082E00E9420
:1000C4007F002FE38DE093E0215080409040E1F7E2
:1000D40000C00000809170008F5F80937000ECCFAF
:1000E40090E0009749F0880F991FFC01E05AFF4FF8
:0A00F4000190F081E02D6083089573
:1000FE0090E0009749F0880F991FFC01E859FF4FD7
:0A010E000190F081E02D6083089558
:10011800EC010E949C000E949B00CE010E949D0061
:06012800CE010E949900C7
:04012E000C9400002D
:040132000E945800CF
:0201360008952A
:02013800089528
:02013A00089526
:08013C003A003B0035003100E0
:080144003B00380035003200D9
:00000001FF
