S00B00005353442E737265632F
S11300000C942A000C9447000C9447000C9447006D
S11300100C9447000C9447000C9447000C94470040
S11300200C9447000C9447000C9447000C94470030
S11300300C9447000C9447000C9447000C94470020
S11300400C9447000C9447000C9447000C94470010
S11300500C94470011241FBECFE5D8E0DEBFCDBF0E
S113006010E0A0E6B0E0E2EDF4E002C005900D92ED
S1130070A23BB107D9F720E0A2EBB0E001C01D928A
S1130080A83BB207E1F70E94DF000C9467020C94CE
S11300900000009729F060E00E949E0181E008952D
S11300A080E00895EF92FF920F931F93CF93DF9315
S11300B01F92CDB7DEB71982009709F17B018C013D
S11300C0BE016F5F7F4F0E942602F8018481811177
S11300D00AC08981813019F4F701808313C0F701C4
S11300E0108281E00FC0813061F48981813019F47C
S11300F0F701108207C081E0F701808303C080E02C
S113010001C081E00F90DF91CF911F910F91FF907B
S1130110EF900895CF93DF93009789F0EC010E944C
S11301204A02CE0104960E944A02CE0108960E9419
S11301304A02CE010C960E944A0281E001C080E08E
S1130140DF91CF9108950F931F93CF930097E1F020
S1130150C62F8C0161700E94E201C1FB662760F921
S1130160C80104960E94E201C2FB662760F9C80137
S113017008960E94E201C3FB662760F9C8010C9649
S11301800E94E20181E001C080E0CF911F910F91B4
S11301900895BC0190E00DC0292F30E0FB01E20F6F
S11301A0F31F4081F901EA56FF4F2081421305C035
S11301B09F5F943088F381E0089580E0089585E896
S11301C090E00E948A0081E890E00E944A028DE754
S11301D090E00E944A0288E790E00E94490083E789
S11301E090E00E9449008EE690E00E94490089E672
S11301F090E00E94490084E690E00E94490067EB89
S113020070E088E790E00E94520066EB70E083E7BC
S113021090E00E94520065EB70E08EE690E00E9450
S1130220520064EB70E089E690E00E94520063EBB8
S113023070E084E690E00E945200E091B200E43065
S113024008F064C08091B700813081F4F0E0E05A96
S1130250FF4F81E3808361E085E890E00E94A30082
S11302608091B2008F5F8093B20061C08091B6002C
S1130270813081F4F0E0E05AFF4F82E3808362E052
S113028085E890E00E94A3008091B2008F5F809384
S1130290B2004DC08091B500813081F4F0E0E05AA5
S11302A0FF4F83E3808363E085E890E00E94A3002E
S11302B08091B2008F5F8093B20039C08091B40006
S11302C0813081F4F0E0E05AFF4F84E3808364E0FE
S11302D085E890E00E94A3008091B2008F5F809334
S11302E0B20025C08091B300813009F5F0E0E05AF6
S11302F0FF4F85E3808365E085E890E00E94A300DA
S11303008091B2008F5F8093B20011C080E690E0CC
S11303100E94C900882331F061E08DE790E00E94DB
S1130320E20105C061E081E890E00E94E2018FE40F
S113033093EC0197F1F700C0000061CF0097D1F171
S1130340DC01EC91E630C0F511968C918930B0F562
S1130350662319F06130C1F033C0F0E0EE0FFF1FE7
S1130360EE55FF4F0190F081E02D408121E030E017
S1130370B90102C0660F771F8A95E2F7CB01809519
S11303808423808381E00895F0E0EE0FFF1FEE5593
S1130390FF4F0190F081E02D408121E030E0D90150
S11303A002C0AA0FBB1F8A95E2F7CD01842B80837C
S11303B081E0089580E0089580E0089580E0089544
S11303C080E008950097D1F1DC01EC91E630C0F5AE
S11303D011968C918930B0F5662319F06130C1F023
S11303E033C0F0E0EE0FFF1FE655FF4F0190F081A0
S11303F0E02D408121E030E0B90102C0660F771F93
S11304008A95E2F7CB0180958423808381E0089567
S1130410F0E0EE0FFF1FE655FF4F0190F081E02D55
S1130420408121E030E0D90102C0AA0FBB1F8A95A8
S1130430E2F7CD01842B808381E0089580E0089564
S113044080E0089580E0089580E008950097E1F049
S1130450DC01EC91E630D0F411962C912930C0F4F3
S1130460F0E0EE0FFF1FE656FF4F0190F081E02D04
S1130470808190E002C0959587952A95E2F7817076
S1130480FB01808381E0089580E0089580E0089571
S113049080E00895CF93DF93009789F0FC012081D9
S11304A0263078F42181293070F4EC0162810E94B5
S11304B09E016B81CE010E94E20181E005C080E0D3
S11304C003C080E001C080E0DF91CF910895F894EB
S10504D0FFCF58
S11304D23030303003040000000303000000030244
S11304E200000003010000000300000000030701F4
S11304F200030601000000010000010100000201E6
S11305020000030100013132333439003600330074
S113051230003A003B00350031003B003800350022
S10505223200A1
S9030000FC
