:100000000C942A000C949F010C94CB010C94F701E2
:100010000C9447000C9447000C9447000C94470044
:100020000C9447000C9447000C9447000C94470034
:100030000C9447000C9447000C9447000C94470024
:100040000C9447000C9447000C9447000C94470014
:100050000C94470011241FBECFE5D8E0DEBFCDBF12
:1000600010E0A0E6B0E0EAE4F4E002C005900D92F2
:10007000A837B107D9F720E0A8E7B0E001C01D928A
:10008000AE37B207E1F70E945D000C9423020C9496
:10009000000061E080E690E00E94AA002FE986E877
:1000A00091E0215080409040E1F700C0000060E006
:1000B00080E690E00E94AA00089580E690E00E9409
:1000C000EE0084E690E00E945701FFCF0097D1F147
:1000D000DC01EC91E630C0F511968C918930B0F5D9
:1000E000662319F06130C1F033C0F0E0EE0FFF1F5E
:1000F000E859FF4F0190F081E02D408121E030E090
:10010000B90102C0660F771F8A95E2F7CB0180958F
:100110008423808381E00895F0E0EE0FFF1FE8590B
:10012000FF4F0190F081E02D408121E030E0D901C6
:1001300002C0AA0FBB1F8A95E2F7CD01842B8083F2
:1001400081E0089580E0089580E0089580E00895BA
:1001500080E008950097D1F1DC01EC91E630C0F524
:1001600011968C918930B0F5662319F06130C1F099
:1001700033C0F0E0EE0FFF1FE059FF4F0190F08118
:10018000E02D408121E030E0B90102C0660F771F09
:100190008A95E2F7CB0180958423808381E00895DE
:1001A000F0E0EE0FFF1FE059FF4F0190F081E02DCE
:1001B000408121E030E0D90102C0AA0FBB1F8A951F
:1001C000E2F7CD01842B808381E0089580E00895DB
:1001D00080E0089580E0089580E00895CF93DF9354
:1001E000009789F0FC012081263078F421812930A4
:1001F00070F4EC0162810E9466006B81CE010E9466
:10020000AA0081E005C080E003C080E001C080E07A
:10021000DF91CF910895FC018381811107C085B7DB
:100220008E7F85BF85B78D7F85BF0895813039F476
:1002300085B7816085BF85B78D7F85BF0895823082
:1002400039F485B7826085BF85B78E7F85BF0895F5
:10025000833031F485B7826085BF85B7816085BF03
:100260000895FC018381811107C085B78B7F85BF0D
:1002700085B7877F85BF0895813039F485B784605D
:1002800085BF85B7877F85BF0895823039F485B7EC
:10029000886085BF85B78B7F85BF0895833031F433
:1002A00085B7846085BF85B7886085BF089500974E
:1002B00009F441C0FC019FB790689FBF92819111E2
:1002C00014C08BB780648BBF8AB780648ABF81B348
:1002D0008B7F81BB8081918190937D0080937C0096
:1002E000CF010E940B0181E008959130A1F48BB7FA
:1002F00080688BBF8AB780688ABF81B3877F81BBE4
:100300008081918190937B0080937A00CF010E943D
:10031000310181E00895953081F48BB780628BBF05
:100320008AB780628ABF808191819093790080939F
:10033000780081E0089580E0089581E008951F929B
:100340000F920FB60F9211242F933F934F935F9309
:100350006F937F938F939F93AF93BF93EF93FF938D
:10036000E0917C00F0917D00309709F009958AB703
:1003700080648ABFFF91EF91BF91AF919F918F9160
:100380007F916F915F914F913F912F910F900FBE91
:100390000F901F9018951F920F920FB60F92112475
:1003A0002F933F934F935F936F937F938F939F937D
:1003B000AF93BF93EF93FF93E0917A00F0917B00AE
:1003C000309709F009958AB780688ABFFF91EF914D
:1003D000BF91AF919F918F917F916F915F914F915D
:1003E0003F912F910F900FBE0F901F9018951F9265
:1003F0000F920FB60F9211242F933F934F935F9359
:100400006F937F938F939F93AF93BF93EF93FF93DC
:10041000E0917800F0917900309709F009958AB75A
:1004200080628ABFFF91EF91BF91AF919F918F91B1
:100430007F916F915F914F913F912F910F900FBEE0
:0A0440000F901F901895F894FFCF5D
:10044A0003000100490000013A003B003500310079
:08045A003B00380035003200C0
:00000001FF
