:100000000C942A000C9447000C9447000C94470071
:100010000C9447000C9447000C9447000C94470044
:100020000C9447000C9447000C9447000C94470034
:100030000C9447000C9447000C9447000C94470024
:100040000C9447000C9447000C9447000C94470014
:100050000C94470011241FBECFE5D8E0DEBFCDBF12
:1000600014E0A0E6B0E0E2E2FFE002C005900D92ED
:10007000A43AB107D9F724E0A4EAB4E001C01D9284
:10008000A73AB207E1F70E94AF010C948F070C94D6
:100090000000009729F060E00E94C60681E0089504
:1000A00080E00895EF92FF920F931F93CF93DF9319
:1000B0001F92CDB7DEB71982009709F17B018C0141
:1000C000BE016F5F7F4F0E944E07F801848181114E
:1000D0000AC08981813019F4F701808313C0F701C8
:1000E000108281E00FC0813061F48981813019F480
:1000F000F701108207C081E0F701808303C080E030
:1001000001C081E00F90DF91CF911F910F91FF907F
:10011000EF9008950F931F93CF930097E9F0C62FA8
:100120008C01617008960E940A07C1FB662760F97E
:10013000C8010C960E940A07C2FB662760F9C80135
:1001400040960E940A07C3FB662760F9C8014496DF
:100150000E940A0781E001C080E0CF911F910F91BA
:100160000895CF93DF93009779F0EC01249661E036
:10017000CE010E940A0700C000C0000060E0CE016E
:100180000E940A0781E001C080E0DF91CF910895CD
:100190001F93CF93DF930097B9F0162FEC0160E027
:1001A0000E940A07612F62956F70CE010E948A003B
:1001B000CE010E94B100612FCE010E948A00CE01C3
:1001C0000E94B10081E001C080E0DF91CF911F91DA
:1001D00008951F93CF93DF93009709F44CC0EC016F
:1001E0000E947207CE0104960E947207CE01089603
:1001F0000E947207CE010C960E947207CE014096B3
:100200000E947207CE0144960E947207182F87E859
:1002100093E10197F1F700C0000068E3CE010E946E
:10022000C80081EE94E00197F1F700C0000068E398
:10023000CE010E94C80092E39A95F1F768E3CE01DF
:100240000E94C80061E0CE010E94C80062E0CE01B9
:100250000E94C80066E0CE010E94C8006CE0CE019A
:100260000E94C80068E2CE010E94C80060E8CE018A
:100270000E94C80001C010E0812FDF91CF911F9133
:100280000895623071F018F4613031F018C06330B5
:1002900069F0643081F013C06FE7640F0E94C800FA
:1002A0000EC06FEB640F0E94C80009C063E9640FC1
:1002B0000E94C80004C063ED640F0E94C80081E082
:1002C00008951F93CF93DF930097B9F0162FEC0199
:1002D00061E00E940A07612F62956F70CE010E9453
:1002E0008A00CE010E94B100612FCE010E948A00D7
:1002F000CE010E94B10081E001C080E0DF91CF918A
:100300001F9108950F931F93CF93DF938C01EB01FF
:10031000892B51F081E004C02196C8010E9461013F
:1003200068816111F9CF01C080E0DF91CF911F9109
:100330000F9108950F931F93CF93DF93009749F088
:100340008901EC010E944101B801CE010E948201A5
:1003500001C080E0DF91CF911F910F9108958AE64F
:1003600090E00E94E90085E690E00E94490080E666
:1003700090E00E9449008091A60481111FC02CE8E2
:1003800030E045E061E08AE690E00E949A0122E8D0
:1003900030E041E062E08AE690E00E949A018091BC
:1003A000A6048F5F8093A6042FEF84E39CE0215086
:1003B00080409040E1F700C00000DDCF813009F0BF
:1003C0004AC061E08AE690E00E94C80027E930E078
:1003D00041E061E08AE690E00E949A012CEA30E078
:1003E00041E062E08AE690E00E949A0120EC30E071
:1003F00041E063E08AE690E00E949A012FEF84E3F7
:100400009CE0215080409040E1F700C0000061E096
:100410008AE690E00E94C80029EC30E041E061E00B
:100420008AE690E00E949A012EED30E041E062E021
:100430008AE690E00E949A012FE78AE196E0215037
:1004400080409040E1F700C000008091A6048F5FDB
:100450008093A60490CF823049F561E08AE690E06F
:100460000E94C80023EF30E041E061E08AE690E0BE
:100470000E949A0128E031E041E062E08AE690E0E3
:100480000E949A012FEF84E39CE02150804090402D
:10049000E1F700C0000061E08AE690E00E94C80039
:1004A0008091A6048F5F8093A60465CF833009F006
:1004B00041C02DE131E041E061E08AE690E00E9438
:1004C0009A0123E331E041E062E08AE690E00E9495
:1004D0009A0127E431E041E063E08AE690E00E947F
:1004E0009A0165EA74E085E690E00E94520064EAB1
:1004F00074E080E690E00E9452008091A404811193
:1005000005C08091A504882309F435CF8091A60405
:100510008F5F8093A60461E08AE690E00E94C800A5
:100520002FE788E391E0215080409040E1F700C040
:10053000000021CF843009F045C01092A40410922D
:10054000A5042AE531E041E061E08AE690E00E94FE
:100550009A012EE631E041E062E08AE690E00E94F6
:100560009A0124E731E041E063E08AE690E00E94EE
:100570009A0165EA74E085E690E00E94520064EA20
:1005800074E080E690E00E9452008091A404811102
:1005900005C08091A504882309F4EDCE8091A604BE
:1005A0008F5F8093A60461E08AE690E00E94C80015
:1005B0002FE788E391E0215080409040E1F700C0B0
:1005C0000000D9CE853081F51092A4041092A504C4
:1005D0002CE731E041E061E08AE690E00E949A0178
:1005E0002DE831E041E062E08AE690E00E949A0165
:1005F0002EE931E041E063E08AE690E00E949A0152
:100600002FE78FE492E1215080409040E1F700C055
:10061000000061E08AE690E00E94C8008091A60494
:100620008F5F8093A604A7CE863009F04DC010924C
:10063000A4041092A5042AEA31E041E061E08AE6D0
:1006400090E00E949A012CEB31E041E062E08AE602
:1006500090E00E949A0121EC31E041E063E08AE6FB
:1006600090E00E949A012FEC31E041E064E08AE6DC
:1006700090E00E949A0165EA74E085E690E00E94AD
:10068000520064EA74E080E690E00E94520080919B
:10069000A404811105C08091A504882309F46BCEC0
:1006A0008091A6048F5F8093A60461E08AE690E0C3
:1006B0000E94C8002FE788E391E0215080409040DD
:1006C000E1F700C0000057CE873009F045C0109216
:1006D000A4041092A5042EED31E041E061E08AE629
:1006E00090E00E949A012EEE31E041E062E08AE65D
:1006F00090E00E949A012EEF31E041E063E08AE64B
:1007000090E00E949A0165EA74E085E690E00E941C
:10071000520064EA74E080E690E00E94520080910A
:10072000A404811105C08091A504882309F423CE77
:100730008091A6048F5F8093A60461E08AE690E032
:100740000E94C8002FE788E391E02150804090404C
:10075000E1F700C000000FCE8830E9F51092A40444
:100760001092A50461E08AE690E00E94C80020E1B2
:1007700032E041E061E08AE690E00E949A0129E2DD
:1007800032E041E062E08AE690E00E949A0128E3CC
:1007900032E041E063E08AE690E00E949A0123E4BF
:1007A00032E041E064E08AE690E00E949A012FEB9B
:1007B00087E299E0215080409040E1F700C00000BE
:1007C00061E08AE690E00E94C8008091A6048F5FF5
:1007D0008093A604D0CD893009F045C01092A404BE
:1007E0001092A50425E532E041E061E08AE690E060
:1007F0000E949A0127E632E041E062E08AE690E05A
:100800000E949A012BE732E041E063E08AE690E043
:100810000E949A0165EA74E085E690E00E94520029
:1008200064EA74E080E690E00E9452008091A404A3
:10083000811105C08091A504882309F49CCD809185
:10084000A6048F5F8093A60461E08AE690E00E9490
:10085000C8002FE788E391E0215080409040E1F705
:1008600000C0000088CD8A3009F04DC01092A40469
:100870001092A5042FE832E041E061E08AE690E0C2
:100880000E949A0124EA32E041E062E08AE690E0C8
:100890000E949A0127EB32E041E063E08AE690E0B3
:1008A0000E949A0125EC32E041E064E08AE690E0A3
:1008B0000E949A0165EA74E085E690E00E94520089
:1008C00064EA74E080E690E00E9452008091A40403
:1008D000811105C08091A504882309F44CCD809135
:1008E000A6048F5F8093A60461E08AE690E00E94F0
:1008F000C8002FE788E391E0215080409040E1F765
:1009000000C0000038CD8B3009F04DC01092A40417
:100910001092A5042FED32E041E061E08AE690E01C
:100920000E949A0124EF32E041E062E08AE690E022
:100930000E949A0127E033E041E063E08AE690E01C
:100940000E949A012CE133E041E064E08AE690E005
:100950000E949A0165EA74E085E690E00E945200E8
:1009600064EA74E080E690E00E9452008091A40462
:10097000811105C08091A504882309F4FCCC8091E5
:10098000A6048F5F8093A60461E08AE690E00E944F
:10099000C8002FE788E391E0215080409040E1F7C4
:1009A00000C00000E8CC8C30E9F51092A40410924D
:1009B000A50461E08AE690E00E94C8002FE233E0DF
:1009C00041E061E08AE690E00E949A012FE333E083
:1009D00041E062E08AE690E00E949A012EE433E072
:1009E00041E063E08AE690E00E949A012FE533E05F
:1009F00041E064E08AE690E00E949A012FEB87E2F2
:100A000099E0215080409040E1F700C0000061E093
:100A10008AE690E00E94C8008091A6048F5F8093D0
:100A2000A604A9CC8D3009F04DC01092A4041092F8
:100A3000A50428E633E041E061E08AE690E00E9408
:100A40009A0120E733E041E062E08AE690E00E940C
:100A50009A0122E833E041E063E08AE690E00E94F8
:100A60009A0121E933E041E064E08AE690E00E94E7
:100A70009A0165EA74E085E690E00E94520064EA1B
:100A800074E080E690E00E9452008091A4048111FD
:100A900005C08091A504882309F46DCC8091A6043B
:100AA0008F5F8093A60461E08AE690E00E94C80010
:100AB0002FE788E391E0215080409040E1F700C0AB
:100AC000000059CC8E30E9F51092A4041092A504D0
:100AD00061E08AE690E00E94C80029E933E041E045
:100AE00061E08AE690E00E949A0128EA33E041E062
:100AF00062E08AE690E00E949A0128EB33E041E050
:100B000062E08AE690E00E949A0121EC33E041E045
:100B100064E08AE690E00E949A012FEB87E299E078
:100B2000215080409040E1F700C0000061E08AE67B
:100B300090E00E94C8008091A6048F5F8093A60475
:100B40001ACC8F3009F04DC01092A4041092A50465
:100B500028E633E041E061E08AE690E00E949A01F5
:100B600027ED33E041E062E08AE690E00E949A01DE
:100B700025EE33E041E063E08AE690E00E949A01CE
:100B800023EF33E041E064E08AE690E00E949A01BE
:100B900065EA74E085E690E00E94520064EA74E041
:100BA00080E690E00E9452008091A404811105C06B
:100BB0008091A504882309F4DECB8091A6048F5F81
:100BC0008093A6042FE788E391E021508040904075
:100BD000E1F700C0000061E08AE690E00E94C800F2
:100BE000CACB803109F046C01092A4041092A5042B
:100BF00061E08AE690E00E94C80029EF33E043E01C
:100C000061E08AE690E00E949A012FE78AE196E08F
:100C1000215080409040E1F700C0000027E034E020
:100C200045E062E08AE690E00E949A0120E134E02B
:100C300045E063E08AE690E00E949A012FE134E00B
:100C400045E064E08AE690E00E949A012FEB87E29B
:100C500099E0215080409040E1F700C0000061E041
:100C60008AE690E00E94C8008091A6048F5F80937E
:100C7000A60481CB813109F07ECB1092A40410929E
:100C8000A50429E234E041E061E08AE690E00E94B8
:100C90009A012EE334E044E062E08AE690E00E94AC
:100CA0009A012DE434E041E063E08AE690E00E949E
:100CB0009A0129E534E041E064E08AE690E00E9490
:100CC0009A0165EA74E085E690E00E94520064EAC9
:100CD00074E080E690E00E9452008091A404882392
:100CE00021F161E08AE690E00E94C80020E634E04D
:100CF00047E062E08AE690E00E949A012DE634E047
:100D00004AE063E08AE690E00E949A012FE78AE1D8
:100D100096E0215080409040E1F700C0000061E083
:100D20008AE690E00E94C80026CB8091A504882323
:100D300009F421CB61E08AE690E00E94C8002DE62C
:100D400034E04AE062E08AE690E00E949A0120E7FF
:100D500034E045E063E08AE690E00E949A0127E7EC
:100D600034E041E064E08AE690E00E949A012FE7D7
:100D70008AE196E0215080409040E1F700C00000F9
:100D800061E08AE690E00E94C800F5CA0097D1F1C0
:100D9000DC01EC91E630C0F511968C918930B0F50C
:100DA000662319F06130C1F033C0F0E0EE0FFF1F91
:100DB000ED56FB4F0190F081E02D408121E030E0C5
:100DC000B90102C0660F771F8A95E2F7CB018095C3
:100DD0008423808381E00895F0E0EE0FFF1FED563D
:100DE000FB4F0190F081E02D408121E030E0D901FE
:100DF00002C0AA0FBB1F8A95E2F7CD01842B808326
:100E000081E0089580E0089580E0089580E00895ED
:100E100080E008950097D1F1DC01EC91E630C0F557
:100E200011968C918930B0F5662319F06130C1F0CC
:100E300033C0F0E0EE0FFF1FE556FB4F0190F0814D
:100E4000E02D408121E030E0B90102C0660F771F3C
:100E50008A95E2F7CB0180958423808381E0089511
:100E6000F0E0EE0FFF1FE556FB4F0190F081E02D03
:100E7000408121E030E0D90102C0AA0FBB1F8A9552
:100E8000E2F7CD01842B808381E0089580E008950E
:100E900080E0089580E0089580E008950097E1F0F3
:100EA000DC01EC91E630D0F411962C912930C0F49D
:100EB000F0E0EE0FFF1FE557FB4F0190F081E02DB2
:100EC000808190E002C0959587952A95E2F7817020
:100ED000FB01808381E0089580E0089580E008951B
:100EE00080E00895CF93DF93009789F0FC01208183
:100EF000263078F42181293070F4EC0162810E945F
:100F0000C6066B81CE010E940A0781E005C080E021
:100F100003C080E001C080E0DF91CF910895F89494
:020F2000FFCF01
:100F220003070000000306000000030001000301A4
:100F32000100030201000303010003040100030591
:100F4200010057656C636F6D6520746F546865208E
:100F5200466F7265737400496D6167696E652079C9
:100F62006F7527726520696E206120006D79737438
:100F72006572696F75732C206D61676963616C00BE
:100F82006C616E642E2E2E2E006F7074696F6E204F
:100F920031206973206C6566742062746E006F7014
:100FA20074696F6E20326973207269676874206297
:100FB200746E004173207520656E746572207468CA
:100FC20065206C616E642C0075207365652061205C
:100FD200666F7265737420616865616400486F773B
:100FE20020646F746865207472656573206C6F6F1E
:100FF2006B3F00312D54686579726520696E2070EF
:1010020061747465726E00322D5468657972652060
:10101200696E2072616E646F6D004973206974207D
:10102200646179206F72206E696768743F00312DA8
:1010320064617900322D6E6967687400752077618A
:101042006C6B206465657020696E746F00746865EE
:1010520020666F726573742C616E64207500666F12
:10106200756E642061206B65790057686174206435
:101072006F6573206974206C6F6F6B006C696B65B0
:1010820000312D4F6C642026207275737479003202
:101092002D4D6F6465726E2026206E65770057684D
:1010A20061742077696C6C207520646F3F00312D6C
:1010B2004C6561766520746865206B657900322D18
:1010C2005069636B20757020746865206B657900C8
:1010D200417320796F7520636F6E74696E75652038
:1010E20077616C6B696E672C00796F75207365652B
:1010F20020612070617468206C656164696E67208C
:10110200746F0061206D7973746572696F757320F5
:10111200646F6F72005A287468652920646F6F7259
:101122002069732E2E2E00312D4772616E642026A7
:10113200206465636F726174656400322D53696D5A
:10114200706C65202620776F726E206F7574007543
:10115200206865617220612073637265616D20662B
:10116200726F6D00626568696E64207A20646F6FC9
:10117200722C646F207500312D4F70656E207A20BD
:10118200646F6F7200322D5475726E206261636BF0
:1011920020616E642077616C6B2061776179005AFF
:1011A200646F6F72206F70656E2D746F207265763A
:1011B20065616C0061626F782E5768617473206993
:1011C2006E736964653F0031416E20616E636965CB
:1011D2006E7420617274696661637400322D73707B
:1011E20061726B6C696E67206A6577656C730075F6
:1011F2002073756464656E6C79206665656C006148
:1012020020636F6C6420627265657A652000262017
:101212006865617220666F6F7473746570730062C3
:101222006568696E64207500646F2075202E2E003B
:10123200312D5475726E20746F2073656520776846
:101242006F00322D49676E6F726520266B6565707F
:101252000077616C6B696E6700736861646F7779A0
:1012620020666967757265006170706561727320CE
:10127200696E20746865200064697374616E6365C9
:10128200007761746368696E6720796F752073698E
:101292006C656E746C7900312D417070726F616390
:1012A2006820697400696E2063617574696F757373
:1012B2006C7900322D52554E004C6F6164696E6735
:1012C2002E2E2E2E2E2E00534855542055502000DF
:1012D200492053414944204C4F4441494E47004A1A
:1012E2005553542057414954002E2E2E436F6E679A
:1012F200726174756C6174696F6E2E2E2E005520AA
:1013020061726520617574697374696300312D546B
:10131200727920616761696E00322D53544655001F
:1013220055204B494444494E47204D45004E4F00FD
:10133200552053544655004F722049616D20676F06
:101342006E6E61206B696C6C20750039003600335B
:101352000030003A003B00350031003B00380035D8
:041362000032000055
:00000001FF
